:100000000C943D000C9471000C9471000C947100E0
:100010000C9471000C9471000C9471000C9471009C
:100020000C9471000C9471000C9471000C9471008C
:100030000C9471000C9471000C9471000C9471007C
:100040000C9471000C9436050C942F050C943D050E
:100050000C9471000C9471000C9471000C9471005C
:100060000C9471000C9413050C9471000C947100A5
:100070000C9471000C947100430511241FBECFEF46
:10008000CDBFDFE3DEBF809140008093400081114F
:1000900005C098ED21E094BF209341008CBB14E390
:1000A000A0E0B4E3ECECF6E102C005900D92A630BE
:1000B000B107D9F724E3A6E0B4E301C01D92A93F3C
:1000C000B207E1F710E0CDE3D0E004C02197FE01D4
:1000D0000E94270BCC33D107C9F70E9498050C94D6
:1000E0002D0B0C94000000008093C4088091C3087D
:1000F00087FFFCCF8091C4080895FC015785408993
:10010000252F30E0842F90E0821B930B541710F0C2
:10011000CF96089501970895FC01958586859817D7
:1001200061F0A685AE0FBF2FB11D51968C919685BB
:100130009F5F9F73968790E008958FEF9FEF0895DC
:10014000FC0195858685981731F08685E80FF11DAD
:10015000818990E008958FEF9FEF0895FC019585C8
:100160002685892F90E0805C9F4F821B91098F73B9
:1001700099270895FC010FB607FE04C08091110174
:100180008823A9F0A085B18514968C91149785FFDA
:100190000EC097858089981307C015968C91159786
:1001A0008F7D15968C930895E8940C94A604089579
:1001B0000F931F93CF93DF93EC018C8581608C8725
:1001C0009F85888998130BC0E885F985848185FF10
:1001D00006C08C8581FD0EC080E4848313C0062F89
:1001E0001F851F5F1F738889811316C0CE010E946F
:1001F000BA00F9CF85818F77806490E49483E88595
:10020000F9858583E885F985628381E090E0DF9157
:10021000CF911F910F910895EF85EC0FFD2FF11DE8
:10022000EF5AFF4F00831F878C85E885F98581FF92
:1002300009C085818F77806690E49483E885F9858D
:100240008583E3CF85818062FBCFCF93DF93EC0181
:100250008C8580FF0CC0E885F985858185FD03C00C
:10026000848186FD04C0CE010E94BA00F4CFDF91E4
:10027000CF9108959FB7F894E0919A0AF0919B0A64
:100280008091960A209155343091563440915734DC
:10029000509158349FBF80FF08C0CF018827892B19
:1002A00021F42F5F3F4F4F4F5F4F0F01169407947C
:1002B00016940794F0011694079416940794E01985
:1002C000F109169407940694102C169416940118AC
:1002D00016941694010C1124E00DF11DA8EEB3E064
:1002E0000E941C0B6E0F7F1F811D911D0895CF92E0
:1002F000DF92EF92FF92CF93DF936B017C010E941C
:100300003A01EB010E943A016C1B7D0B683E734081
:10031000A0F0C114D104E104F10439F4DF91CF91CC
:10032000FF90EF90DF90CF90089581E0C81AD10838
:10033000E108F108C851DC4FE5CFC114D104E10454
:10034000F10401F7EBCFAF92BF92CF92DF92EF9221
:10035000FF920F931F93CF93DF936C017B018B016F
:10036000040F151FEB015E01AE18BF08C017D107BF
:1003700059F06991D601ED91FC910190F081E02D49
:10038000C6010995892B79F7C501DF91CF911F919E
:100390000F91FF90EF90DF90CF90BF90AF900895B6
:1003A000CF92DF92EF92FF920F931F938B019C01EC
:1003B00040E050E060E070E40417150726073707B7
:1003C00040F4A2E07695679557954795AA95D1F7A1
:1003D000F3CF80E090E0DC01411551056105710526
:1003E000F9F06A017B01C80ED91EEA1EFB1EB69504
:1003F000A795979587950C151D052E053F0540F08F
:100400000C191D092E093F09840F951FA61FB71F40
:10041000E2E07695679557954795EA95D1F7DCCF59
:100420001F910F91FF90EF90DF90CF900895CF93A1
:10043000DF939C01E82F432F283E83E0380710F01C
:10044000E7EE43E08E2F942F64E670E00E94950A59
:1004500060931534CAE0D0E08E2F942FBE010E9425
:10046000950A482FCB01BE010E94950A809316344D
:100470004093173481E02436310508F080E0809302
:10048000003481E02A30310508F080E080930134A7
:1004900010920234DF91CF9108958F929F92AF9284
:1004A000BF92CF92DF92EF92FF920F931F936B0157
:1004B0007C0160912534709126346D3B22E07207F7
:1004C00008F488C06C5B724090E080E08090233438
:1004D000909024342DE2821621E0920608F47EC02A
:1004E0002CE2821A21E0920AB12CA12C0E94D001A8
:1004F0008C01C501B4010E94D001A801440F551F11
:10050000400F511F880F991FB0E0A0E08C019D01A2
:10051000040F151F211D311D80911F34909120342F
:1005200063E070E00E94950A6739710510F066E992
:1005300070E0A9019801260F371F411D511DA5E547
:10054000B0E00E941C0B24E6822E912CA12CB12C31
:10055000A50194010E94BD0A253F81E038074105AD
:10056000510508F03FC0ACE3B0E00E941C0BA501B0
:1005700094010E94BD0AC9010E94170228EBC20E15
:100580002BE0D21EE11CF11CC0921134D092123427
:10059000E0921334F09214341092193410921A34F9
:1005A00010921B3410921C34C0925034D0925134AB
:1005B000E0925234F092533483E0809354341F918C
:1005C0000F91FF90EF90DF90CF90BF90AF909F90F2
:1005D0008F90089560E070E0CB0178CF812C912C52
:1005E000540184CFA0EAB0E00E941C0B605878430D
:1005F00081409109A50194010E94BD0A245D3E4FEE
:100600004F4F5F4F283E83E038074105510508F4FE
:10061000B2CF27EE33E040E050E0ADCF8231D0F4EE
:1006200090E0FC01E855F94620812F3F99F0FC014C
:10063000EA56F946E08130E2E39FF0011124FC5FC5
:1006400021838C579946DC018C91E80FF11D80893C
:10065000877F808B0895CF93DF93823108F043C06A
:1006600090E0EC01C855D94628812F3F09F43BC0E2
:10067000AC014A565946DA01EC91B0E2EB9FF00129
:100680001124FC5F611132C0268330812323A1F441
:100690009C012C573946D9012C91309781F1283093
:1006A00070F57096E20FF11D3FB7F894208161114B
:1006B00029C0277F20833FBF8E589946FC01808147
:1006C000882389F0803179F48881DA019C91913016
:1006D000D9F4853010F0880F82959091010A8095A9
:1006E00089238093010ADF91CF910895643029F422
:1006F0003481278364816223C8CF2583C6CFF0E08D
:10070000E0E0D2CF2860D6CF880FE7CFCF93DF933A
:10071000D82FC62F9091F7348091F8342091F2347D
:10072000222321F02FB72093F334F89421E0209373
:10073000F4349093C0088093C10860E080E00E9488
:100740002B038D2F0E9473008C2F0E94730061E099
:1007500080E00E942B038091F434882349F01092AA
:10076000F4348091F234882319F08091F3348FBFF0
:10077000DF91CF910895CF93C82F9091F734809156
:10078000F8342091F234222321F02FB72093F33450
:10079000F89421E02093F4349093C0088093C1082A
:1007A00060E080E00E942B038C2F80680E94730021
:1007B00080E00E947300C82F61E080E00E942B035C
:1007C0008091F434882349F01092F4348091F2340B
:1007D000882319F08091F3348FBF8C2FCF91089527
:1007E000CF93DF93C82F0E94BB03D82F81E08C0FDB
:1007F0000E94BB03982F8D2FDF91CF910895CF9347
:10080000DF93CEE5D6E960E089910E942B0386E96B
:10081000C536D807C1F7DF91CF91089560E08BE02E
:100820000E942B0360E08CE00E942B0360E08DE0CF
:100830000C942B0310921134109212341092133432
:10084000109214340E940E040C94FF0360E082E0C6
:100850000E942B0360E083E00C942B035F926F9265
:100860007F928F929F92AF92BF92CF92DF92EF9240
:10087000FF920F931F93CF93DF93782E1092103433
:1008800010920A34C0E066246394082F10E00E949E
:100890003A014B015C017C016B01D0E00E943A01FE
:1008A000681979098A099B096035734C810591059E
:1008B000CCF40E943A016C197D098E099F0997FDBD
:1008C000EDCF5D2E5624652D82E00E942B036D2F07
:1008D00083E00E942B038DE7C80ED11CE11CF11CA4
:1008E000D52DDCCF0E94260481E090E0CC2311F0CE
:1008F00082E090E08017910734F46AE570E080E0D0
:1009000090E00E947701CF5F7C12C1CFDF91CF9141
:100910001F910F91FF90EF90DF90CF90BF90AF901D
:100920009F908F907F906F905F90089510921E34EB
:100930001092103410920A340C9426042F932FB77F
:100940002F938F939F93AF93BF936894CF93DF932D
:1009500020E0C085D8E09089DF01A90FB21FAF5A0F
:10096000BF4F8C9120E42C838A839F5F9F738D817E
:100970002785291302C08F7D8D83908BDF91CF91C6
:1009800016F00C94D700BF91AF919F918F912F914A
:100990002FBF2F91FF91EF9118952F932FB72F9382
:1009A0003F938F939F93CF93DF93C085D8E0898146
:1009B00098818674880F3485382B82FD0DC0C585DB
:1009C00081E08C0F8F732685281791F0CE0FDF2FD3
:1009D00020E0D21F998B85873487DF91CF919F913B
:1009E0008F913F912F912FBF2F91FF91EF911895EC
:1009F0003064F2CF8F938FB78F939F93CF93DF9312
:100A0000C085D8E09D8188818C8187FDFCCF9F7B4C
:100A100090689D83DF91CF919F918F918FBF8F9130
:100A2000FF91EF9118958F9381E08093960A8FB78D
:100A30008F93EF93FF93E5E5F4E380818F5F8083ED
:100A400081818F4F818382818F4F828383818F4FFA
:100A50008383FF91EF918F918FBF8F911895EF93C3
:100A6000FF93F898E9E5F4E30C949E04EF93FF9369
:100A7000F898E9E5F4E30C94CD04EF93FF93E9E5EE
:100A8000F4E30C94FA0410925B3410925C3488EE18
:100A900093E0A0E0B0E080935D3490935E34A09347
:100AA0005F34B09360348EEB96E980935934909321
:100AB0005A3480E098E080936134909362341092CD
:100AC00063341092643484E08093F63481E280933E
:100AD000F53480EC98E08093EA349093EB341092F4
:100AE000F13440E45BE46CE470E080E08F5F8630DA
:100AF00011F487E00BC0769567955795479541347B
:100B000092E459079FE06907710580F797E0909399
:100B1000F834982F9095292F217030E094E0220F1F
:100B2000331F9A95E1F78162822B8093F734089501
:100B3000CF93DF93CDB7DEB72597CDBFDEBF81E082
:100B400098ED94BF80936100E0E0F6E081839FE040
:100B5000908791E2908390E592839AE09387109238
:100B6000E4058093030A9EEF9093260A9093270A48
:100B70009BE09093000A27E833E120939C0A30938E
:100B80009D0A8093950A1092910A83E08093900ABF
:100B9000789482E00E940E0383E00E940E030E947C
:100BA000960405E616E92EE536E929833A83A981FC
:100BB000BA818D91A983BA830E940E0389809A809D
:100BC00008151905A1F78BE00E940E038CE00E9426
:100BD0000E038DE00E940E030E941A0480E00E9422
:100BE0000E0361E080E00E942B038091F1348823A2
:100BF00009F46AC18091E3058C7F9091F034892BD0
:100C00008093E30591116BC18EE00E940E0380E199
:100C10000E940E038091C10884608093C108809176
:100C2000C00881628093C0089091F5348091F634B9
:100C30009093C0088093C1086AE070E080E090E083
:100C40000E9477018FE00E94BB0391E0833709F097
:100C500090E090931D348337D1F463E087E10E94E4
:100C6000860368E080E10E94860366E68EE40E94C7
:100C700086036DE085E10E94860368E081E10E94C1
:100C8000860365E070E080E090E00E9477011092BA
:100C90004A3410924B3410924C3410924D341092CE
:100CA00046341092473410924834109249341092CE
:100CB00042341092433410924434109245341092CE
:100CC0003E3410923F3410924034109241341092CE
:100CD0004E3410924F342FB7F89480915534909140
:100CE0005634A0915734B09158342FBF885A9D4F35
:100CF000AF4FBF4F80933A3490933B34A0933C3432
:100D0000B0933D348FB7F894C0905534D09056349A
:100D1000E0905734F09058348FBF88E793E00E94FA
:100D2000170208E5C00E02E0D01EE11CF11CC092C3
:100D30001134D0921234E0921334F09214341092A1
:100D4000193410921A3410921B3410921C341092E1
:100D5000543423E0222E312C38EE432E33E0532E30
:100D6000612C712C8FB7F894C0905534D0905634C4
:100D7000E0905734F09058348FBF0E943A014B01F5
:100D80005C0180911E34882309F4B1C080910C3439
:100D900090910D34A0910E34B0910F34881A990AB5
:100DA000AA0ABB0AB7FC23C060910B3411E061278B
:100DB00060930B3482E00E942B0360910B34612717
:100DC00083E00E942B0380910C3490910D34A0910C
:100DD0000E34B0910F3483589F4FAF4FBF4F809365
:100DE0000C3490930D34A0930E34B0930F34809153
:100DF00010348111B7CF80911E348111B3CF80910F
:100E0000113490911234A0911334B091143400979E
:100E1000A105B10551F08C199D09AE09BF0918163D
:100E200019061A061B060CF4B6C00E941A0480911B
:100E30005434813009F015C10E941A040E943A010D
:100E400080911E34811103C082E00E942E04109212
:100E500025341092263410922334109224341092A8
:100E600021341092223410921F34109220341092A8
:100E70002B3410922C3410922D3410922E34109268
:100E8000333410922F341092303410923134109247
:100E900032342FB7F8948091553490915634A09104
:100EA0005734B09158342FBF88519C4FAF4FBF4F2C
:100EB0008093273490932834A0932934B0932A3414
:100EC00082E0809354344ECF1092F2341092F43476
:100ED00080E88093F33481E08093F1348BCE9130BD
:100EE00009F098CE8CE00E940E038AE091CE8091AA
:100EF0001034811103C00E94960479CF40910634CA
:100F0000509107346091083470910934950184013F
:100F1000041B150B260B370BB901A80190910A345D
:100F20009923D9F077FD32CF8150809310348823F4
:100F300011F310920A340E94260410E9810E1FE575
:100F4000911E11E0A11EB11C8092063490920734CC
:100F5000A0920834B09209344ACF77FD48CF21E0FF
:100F600020930A3410920B3480920C3490920D34FA
:100F7000A0920E34B0920F34D501C401805B9C4323
:100F8000AF4FBF4F8093063490930734A09308343B
:100F9000B09309342CCF8091193490911A34A091D8
:100FA0001B34B0911C340097A105B10569F0B7015D
:100FB000A601481B590B6A0B7B0BDB01CA01029788
:100FC000A105B10508F433CFC0921934D0921A3478
:100FD000E0921B34F0921C340E940E040E94FF0326
:100FE0008091183490E00196B1010E94A90A809383
:100FF0001834FC01E050FC4C2081211118CF8B5E8D
:101000009B4CDC01EC91EA3060F00E94FF03E09120
:101010001834F0E0E159F94661E080810E942B0329
:1010200006CFF0E0EB59F946A0800EE516E9E6E0C0
:10103000F0E0E983FA83B12CB501098002C075950F
:1010400067950A94E2F76170D8018D918D010E9435
:101050002B03E981FA813197E983FA83319661F7AD
:10106000D6CF833091F48091503490915134A09137
:101070005234B0915334C81AD90AEA0AFB0AF7FC71
:1010800071CE31E0309354346DCE80911D3488237D
:1010900009F421C184E30E94F00321EA37E0DC0176
:1010A0000E94150BA30192010E94DF0A29833A8353
:1010B00086E30E94F00321EA37E0DC010E94150B71
:1010C000A30192010E94DF0A890188E30E94F003D4
:1010D00021EA37E0DC010E94150BA30192010E9476
:1010E000DF0AA90129813A81D9010E94FE0A4B0138
:1010F0005C019801D8010E94FE0A860E971EA81E68
:10110000B91E9A01DA010E94FE0A680D791D8A1D36
:101110009B1D0E94D0014C0180911D34882309F44D
:10112000E1C082E20E94F0038C0184E20E94F0039D
:101130005C0186E20E94F003409154344D834111DA
:10114000D8C0E0914E34F0914F34EF3F5FE7F507A0
:1011500008F063C0012E000C220B330B40914A347F
:1011600050914B3460914C3470914D34400F511F6D
:10117000621F731F40934A3450934B3460934C3436
:1011800070934D348501BB0C220B330B40914634D8
:10119000509147346091483470914934400F511F49
:1011A000621F731F40934634509347346093483412
:1011B00070934934092E000CAA0BBB0B40914234AA
:1011C000509143346091443470914534840F951F9D
:1011D000A61FB71F8093423490934334A0934434A6
:1011E000B093453480913E3490913F34A091403487
:1011F000B0914134880D991DA11DB11D80933E34DD
:1012000090933F34A0934034B09341349F012F5FBB
:101210003F4F20934E3430934F3480913A34909125
:101220003B34A0913C34B0913D34C81AD90AEA0A43
:10123000FB0AF7FC97CDC0904E34D0904F34C114C8
:10124000D10409F442C0F12CE12C60914A34709130
:101250004B3480914C3490914D34A70196010E94FB
:10126000DF0A2093383430933934609146347091DA
:1012700047348091483490914934A70196010E94E7
:10128000DF0A2093363430933734609142347091C2
:1012900043348091443490914534A70196010E94D3
:1012A000DF0A209334343093353460913E347091AA
:1012B0003F348091403490914134A70196010E94BF
:1012C000BD0A20930334309304340E941A0461E071
:1012D0006093543447CD48EE53E010E000E01982AB
:1012E0001A8200CF90E080E0B12CA12C10E000E049
:1012F00023CF2091383430913934D801A21BB30B5D
:101300002091363430913734A21AB30A2091343404
:1013100030913534AC01421B530B9D010E94FE0AF3
:1013200069837A838B839C839501D5010E94FE0A91
:1013300009811A812B813C81060F171F281F391F35
:1013400009831A832B833C839A01DA010E94FE0AE7
:1013500009811A812B813C81600F711F821F931FAD
:101360000E94D0018C0140910334509104349401C7
:10137000241B350B4815590518F09A01281939090D
:1013800028373105B0F4B40190E080E0641B750BA0
:10139000810991094B015C0195E0B594A79497945C
:1013A00087949A95D1F7480D591D40930334509373
:1013B00004347D81723009F0D5CC40913334411131
:1013C00026C0A90170E060E082E0440F551F661F4F
:1013D000771F8A95D1F7400F511F611D711D483746
:1013E00055406105710598F091E090933334C092B7
:1013F0002F34D0923034E0923134F0923234C092B3
:101400002B34D0922C34E0922D34F0922E34409133
:101410003334411120C08091273490912834A09119
:101420002934B0912A3446015701881A990AAA0A28
:10143000BB0AD501C401B7FD95CC0E943A01809149
:101440001E34811103C081E00E942E04C701B60141
:101450000E944D0287CC40912F3450913034F601D8
:10146000E41BF50B40912B3450912C3460912D34BA
:1014700070912E34411551056105710509F44DC077
:101480005601A41AB50AA501C0922B34D0922C346F
:10149000E0922D34F0922E346091253470912634F0
:1014A0006017710720F4009325341093263480913F
:1014B0002334909124348217930720F4209323340B
:1014C000309324342E35314058F18091213490915D
:1014D00022348A0130E020E0080F191F211D311D40
:1014E000480F591F011511052140310510F04FEF2C
:1014F0005FEF409321345093223480911F349091B8
:1015000020348417950720F440931F3450932034DF
:10151000E83BFB4008F426CC90CF50E040E0B4CF4D
:101520001092213410922234F3CFAA1BBB1B51E13D
:1015300007C0AA1FBB1FA617B70710F0A61BB70B43
:10154000881F991F5A95A9F780959095BC01CD01E8
:10155000089597FB072E16F4009407D077FD09D065
:101560000E94950A07FC05D03EF4909581959F4F07
:101570000895709561957F4F0895A1E21A2EAA1BD8
:10158000BB1BFD010DC0AA1FBB1FEE1FFF1FA21733
:10159000B307E407F50720F0A21BB30BE40BF50B30
:1015A000661F771F881F991F1A9469F760957095B9
:1015B000809590959B01AC01BD01CF010895052E4A
:1015C00097FB1EF400940E94F60A57FD07D00E9474
:1015D000BD0A07FC03D04EF40C94F60A50954095D2
:1015E000309521953F4F4F4F5F4F089590958095CF
:1015F000709561957F4F8F4F9F4F08950E94060B06
:10160000332312F48A1B9B0B0C94170BA29FB0017F
:10161000B39FC001A39F700D811D1124911DB29F26
:10162000700D811D1124911D08950E94060BB7FFB6
:101630000895821B930B08950E94060BA59F900DA1
:10164000B49F900DA49F800D911D11240895EE0F5D
:0E165000FF1F0590F491E02D0994F894FFCF50
:10165E000907050608040A7E306D79335B5F707FDB
:10166E007B0B0C0D1010000000000010101000007D
:10167E000000000010000405060705040302010027
:10168E00000102030102030000000000010101013C
:10169E000101020202020000000010204080201012
:1016AE0008040201010204080204080100000000FF
:0E16BE00D800A3017D002501AE008C00A00025
:0616CC00010101E803002A
:00000001FF
